{
  "_format": "hh-sol-artifact-1",
  "contractName": "Club",
  "sourceName": "contracts/CLUB.sol",
  "abi": [
    {
      "inputs": [],
      "stateMutability": "nonpayable",
      "type": "constructor"
    },
    {
      "inputs": [],
      "name": "Limit_TIME",
      "outputs": [
        {
          "internalType": "int256",
          "name": "",
          "type": "int256"
        }
      ],
      "stateMutability": "view",
      "type": "function"
    },
    {
      "inputs": [],
      "name": "PUBLISH_AMOUNT",
      "outputs": [
        {
          "internalType": "uint256",
          "name": "",
          "type": "uint256"
        }
      ],
      "stateMutability": "view",
      "type": "function"
    },
    {
      "inputs": [],
      "name": "TimeLimit",
      "outputs": [
        {
          "internalType": "uint256",
          "name": "",
          "type": "uint256"
        }
      ],
      "stateMutability": "view",
      "type": "function"
    },
    {
      "inputs": [],
      "name": "Token_AMOUNT",
      "outputs": [
        {
          "internalType": "uint256",
          "name": "",
          "type": "uint256"
        }
      ],
      "stateMutability": "view",
      "type": "function"
    },
    {
      "inputs": [],
      "name": "VOTE_AMOUNT",
      "outputs": [
        {
          "internalType": "uint256",
          "name": "",
          "type": "uint256"
        }
      ],
      "stateMutability": "view",
      "type": "function"
    },
    {
      "inputs": [
        {
          "internalType": "address",
          "name": "to",
          "type": "address"
        },
        {
          "internalType": "uint256",
          "name": "index",
          "type": "uint256"
        }
      ],
      "name": "delegate",
      "outputs": [],
      "stateMutability": "nonpayable",
      "type": "function"
    },
    {
      "inputs": [],
      "name": "getBonus",
      "outputs": [
        {
          "internalType": "uint256",
          "name": "",
          "type": "uint256"
        }
      ],
      "stateMutability": "nonpayable",
      "type": "function"
    },
    {
      "inputs": [],
      "name": "getPlayerNumber",
      "outputs": [
        {
          "internalType": "uint256",
          "name": "",
          "type": "uint256"
        }
      ],
      "stateMutability": "view",
      "type": "function"
    },
    {
      "inputs": [
        {
          "internalType": "uint256",
          "name": "index",
          "type": "uint256"
        }
      ],
      "name": "getProposal",
      "outputs": [],
      "stateMutability": "nonpayable",
      "type": "function"
    },
    {
      "inputs": [
        {
          "internalType": "uint256",
          "name": "index",
          "type": "uint256"
        }
      ],
      "name": "getProposalAll",
      "outputs": [],
      "stateMutability": "nonpayable",
      "type": "function"
    },
    {
      "inputs": [],
      "name": "getProposalNumber",
      "outputs": [
        {
          "internalType": "uint256",
          "name": "",
          "type": "uint256"
        }
      ],
      "stateMutability": "view",
      "type": "function"
    },
    {
      "inputs": [],
      "name": "getProposer",
      "outputs": [],
      "stateMutability": "nonpayable",
      "type": "function"
    },
    {
      "inputs": [],
      "name": "join",
      "outputs": [],
      "stateMutability": "nonpayable",
      "type": "function"
    },
    {
      "inputs": [],
      "name": "manager",
      "outputs": [
        {
          "internalType": "address",
          "name": "",
          "type": "address"
        }
      ],
      "stateMutability": "view",
      "type": "function"
    },
    {
      "inputs": [],
      "name": "myERC20",
      "outputs": [
        {
          "internalType": "contract MyERC20",
          "name": "",
          "type": "address"
        }
      ],
      "stateMutability": "view",
      "type": "function"
    },
    {
      "inputs": [],
      "name": "myERC721",
      "outputs": [
        {
          "internalType": "contract MyERC721",
          "name": "",
          "type": "address"
        }
      ],
      "stateMutability": "view",
      "type": "function"
    },
    {
      "inputs": [
        {
          "internalType": "uint256",
          "name": "",
          "type": "uint256"
        }
      ],
      "name": "players",
      "outputs": [
        {
          "internalType": "address",
          "name": "",
          "type": "address"
        }
      ],
      "stateMutability": "view",
      "type": "function"
    },
    {
      "inputs": [],
      "name": "proposal",
      "outputs": [
        {
          "internalType": "string",
          "name": "name",
          "type": "string"
        },
        {
          "internalType": "string",
          "name": "content",
          "type": "string"
        },
        {
          "internalType": "uint256",
          "name": "approve",
          "type": "uint256"
        },
        {
          "internalType": "uint256",
          "name": "reject",
          "type": "uint256"
        },
        {
          "internalType": "bool",
          "name": "closed",
          "type": "bool"
        },
        {
          "internalType": "uint256",
          "name": "start",
          "type": "uint256"
        },
        {
          "internalType": "int256",
          "name": "remaintime",
          "type": "int256"
        },
        {
          "internalType": "bool",
          "name": "publish",
          "type": "bool"
        },
        {
          "internalType": "address",
          "name": "proposer_in",
          "type": "address"
        },
        {
          "internalType": "bool",
          "name": "get_credit",
          "type": "bool"
        }
      ],
      "stateMutability": "view",
      "type": "function"
    },
    {
      "inputs": [
        {
          "internalType": "uint256",
          "name": "",
          "type": "uint256"
        }
      ],
      "name": "proposals",
      "outputs": [
        {
          "internalType": "string",
          "name": "name",
          "type": "string"
        },
        {
          "internalType": "string",
          "name": "content",
          "type": "string"
        },
        {
          "internalType": "uint256",
          "name": "approve",
          "type": "uint256"
        },
        {
          "internalType": "uint256",
          "name": "reject",
          "type": "uint256"
        },
        {
          "internalType": "bool",
          "name": "closed",
          "type": "bool"
        },
        {
          "internalType": "uint256",
          "name": "start",
          "type": "uint256"
        },
        {
          "internalType": "int256",
          "name": "remaintime",
          "type": "int256"
        },
        {
          "internalType": "bool",
          "name": "publish",
          "type": "bool"
        },
        {
          "internalType": "address",
          "name": "proposer_in",
          "type": "address"
        },
        {
          "internalType": "bool",
          "name": "get_credit",
          "type": "bool"
        }
      ],
      "stateMutability": "view",
      "type": "function"
    },
    {
      "inputs": [
        {
          "internalType": "address",
          "name": "",
          "type": "address"
        }
      ],
      "name": "proposer",
      "outputs": [
        {
          "internalType": "uint256",
          "name": "",
          "type": "uint256"
        }
      ],
      "stateMutability": "view",
      "type": "function"
    },
    {
      "inputs": [
        {
          "internalType": "string",
          "name": "_name",
          "type": "string"
        },
        {
          "internalType": "string",
          "name": "_content",
          "type": "string"
        }
      ],
      "name": "publishProposal",
      "outputs": [],
      "stateMutability": "nonpayable",
      "type": "function"
    },
    {
      "inputs": [],
      "name": "q",
      "outputs": [
        {
          "internalType": "uint256",
          "name": "",
          "type": "uint256"
        }
      ],
      "stateMutability": "view",
      "type": "function"
    },
    {
      "inputs": [],
      "name": "refresh",
      "outputs": [],
      "stateMutability": "nonpayable",
      "type": "function"
    },
    {
      "inputs": [
        {
          "internalType": "uint256",
          "name": "k",
          "type": "uint256"
        },
        {
          "internalType": "uint256",
          "name": "index",
          "type": "uint256"
        }
      ],
      "name": "vote",
      "outputs": [],
      "stateMutability": "nonpayable",
      "type": "function"
    },
    {
      "inputs": [
        {
          "internalType": "uint256",
          "name": "index",
          "type": "uint256"
        },
        {
          "internalType": "uint256",
          "name": "k",
          "type": "uint256"
        }
      ],
      "name": "voteToProposal",
      "outputs": [],
      "stateMutability": "nonpayable",
      "type": "function"
    },
    {
      "inputs": [
        {
          "internalType": "address",
          "name": "",
          "type": "address"
        }
      ],
      "name": "voters",
      "outputs": [
        {
          "internalType": "uint256",
          "name": "weight",
          "type": "uint256"
        },
        {
          "internalType": "address",
          "name": "delegate",
          "type": "address"
        },
        {
          "internalType": "uint256",
          "name": "agree_reject",
          "type": "uint256"
        }
      ],
      "stateMutability": "view",
      "type": "function"
    }
  ],
  "bytecode": "0x60806040523480156200001157600080fd5b5060405162000020906200013b565b6200002b9062000208565b604051809103906000f08015801562000048573d6000803e3d6000fd5b50600260006101000a81548173ffffffffffffffffffffffffffffffffffffffff021916908373ffffffffffffffffffffffffffffffffffffffff160217905550336000806101000a81548173ffffffffffffffffffffffffffffffffffffffff021916908373ffffffffffffffffffffffffffffffffffffffff160217905550604051620000d79062000149565b604051809103906000f080158015620000f4573d6000803e3d6000fd5b50600360006101000a81548173ffffffffffffffffffffffffffffffffffffffff021916908373ffffffffffffffffffffffffffffffffffffffff1602179055506200023f565b611d01806200341a83390190565b612e52806200511b83390190565b600082825260208201905092915050565b7f5a4a55546f6b656e000000000000000000000000000000000000000000000000600082015250565b6000620001a060088362000157565b9150620001ad8262000168565b602082019050919050565b7f5a4a55546f6b656e53796d626f6c000000000000000000000000000000000000600082015250565b6000620001f0600e8362000157565b9150620001fd82620001b8565b602082019050919050565b60006040820190508181036000830152620002238162000191565b905081810360208301526200023881620001e1565b9050919050565b6131cb806200024f6000396000f3fe608060405234801561001057600080fd5b506004361061018e5760003560e01c80638bdff161116100de578063c7f758a811610097578063f17b4bdb11610071578063f17b4bdb1461043d578063f71d96cb1461045b578063f8ac93e81461048b578063fd3ab282146104955761018e565b8063c7f758a8146103f9578063ca8ef89f14610415578063e9790d02146104335761018e565b80638bdff161146103475780638f334e8d146103655780639e8c142f14610383578063a3ec138d146103a1578063b384abef146103d3578063b688a363146103ef5761018e565b806338b55d0b1161014b578063481c6a7511610125578063481c6a75146102c65780636af564cd146102e45780636d3739c414610302578063753ec103146103205761018e565b806338b55d0b146102705780633d1a727e1461028c578063481a1d82146102a85761018e565b8063013cf08b14610193578063026e402b146101cc578063054f8cbf146101e857806313eaac6c1461021857806320289077146102365780633770243614610254575b600080fd5b6101ad60048036038101906101a89190611f2f565b6104b3565b6040516101c39a99989796959493929190612070565b60405180910390f35b6101e660048036038101906101e19190612146565b61066e565b005b61020260048036038101906101fd9190612186565b610a83565b60405161020f91906121b3565b60405180910390f35b610220610a9b565b60405161022d91906121b3565b60405180910390f35b61023e610aa8565b60405161024b91906121b3565b60405180910390f35b61026e600480360381019061026991906121ce565b610ab5565b005b61028a60048036038101906102859190612343565b610bb6565b005b6102a660048036038101906102a19190611f2f565b610e4a565b005b6102b0610fbc565b6040516102bd91906121b3565b60405180910390f35b6102ce610fc1565b6040516102db91906123bb565b60405180910390f35b6102ec610fe5565b6040516102f991906121b3565b60405180910390f35b61030a610fea565b6040516103179190612435565b60405180910390f35b610328611010565b60405161033e9a99989796959493929190612070565b60405180910390f35b61034f6111a9565b60405161035c91906121b3565b60405180910390f35b61036d611331565b60405161037a9190612471565b60405180910390f35b61038b611357565b60405161039891906121b3565b60405180910390f35b6103bb60048036038101906103b69190612186565b61135d565b6040516103ca9392919061248c565b60405180910390f35b6103ed60048036038101906103e891906121ce565b6113a7565b005b6103f7611584565b005b610413600480360381019061040e9190611f2f565b6116d7565b005b61041d6116ec565b60405161042a91906121b3565b60405180910390f35b61043b6116f1565b005b610445611739565b60405161045291906124c3565b60405180910390f35b61047560048036038101906104709190611f2f565b61173f565b60405161048291906123bb565b60405180910390f35b61049361177e565b005b61049d611932565b6040516104aa91906121b3565b60405180910390f35b600c81815481106104c357600080fd5b90600052602060002090600802016000915090508060000180546104e69061250d565b80601f01602080910402602001604051908101604052809291908181526020018280546105129061250d565b801561055f5780601f106105345761010080835404028352916020019161055f565b820191906000526020600020905b81548152906001019060200180831161054257829003601f168201915b5050505050908060010180546105749061250d565b80601f01602080910402602001604051908101604052809291908181526020018280546105a09061250d565b80156105ed5780601f106105c2576101008083540402835291602001916105ed565b820191906000526020600020905b8154815290600101906020018083116105d057829003601f168201915b5050505050908060020154908060030154908060040160009054906101000a900460ff16908060050154908060060154908060070160009054906101000a900460ff16908060070160019054906101000a900473ffffffffffffffffffffffffffffffffffffffff16908060070160159054906101000a900460ff1690508a565b6000600f60003373ffffffffffffffffffffffffffffffffffffffff1673ffffffffffffffffffffffffffffffffffffffff16815260200190815260200160002090508060030182815481106106c7576106c661253e565b5b90600052602060002090602091828204019190069054906101000a900460ff1615610727576040517f08c379a000000000000000000000000000000000000000000000000000000000815260040161071e906125b9565b60405180910390fd5b3373ffffffffffffffffffffffffffffffffffffffff168373ffffffffffffffffffffffffffffffffffffffff1603610795576040517f08c379a000000000000000000000000000000000000000000000000000000000815260040161078c90612625565b60405180910390fd5b5b600073ffffffffffffffffffffffffffffffffffffffff16600f60008573ffffffffffffffffffffffffffffffffffffffff1673ffffffffffffffffffffffffffffffffffffffff16815260200190815260200160002060010160009054906101000a900473ffffffffffffffffffffffffffffffffffffffff1673ffffffffffffffffffffffffffffffffffffffff161461090457600f60008473ffffffffffffffffffffffffffffffffffffffff1673ffffffffffffffffffffffffffffffffffffffff16815260200190815260200160002060010160009054906101000a900473ffffffffffffffffffffffffffffffffffffffff1692503373ffffffffffffffffffffffffffffffffffffffff168373ffffffffffffffffffffffffffffffffffffffff16036108ff576040517f08c379a00000000000000000000000000000000000000000000000000000000081526004016108f690612691565b60405180910390fd5b610796565b600181600301838154811061091c5761091b61253e565b5b90600052602060002090602091828204019190066101000a81548160ff021916908315150217905550828160010160006101000a81548173ffffffffffffffffffffffffffffffffffffffff021916908373ffffffffffffffffffffffffffffffffffffffff1602179055506000600f60008573ffffffffffffffffffffffffffffffffffffffff1673ffffffffffffffffffffffffffffffffffffffff16815260200190815260200160002090508060030183815481106109e1576109e061253e565b5b90600052602060002090602091828204019190069054906101000a900460ff1615610a5d576001816002015403610a3757816000015460046002016000828254610a2b91906126e0565b92505081905550610a58565b816000015460046003016000828254610a5091906126e0565b925050819055505b610a7d565b8160000154816000016000828254610a7591906126e0565b925050819055505b50505050565b60106020528060005260406000206000915090505481565b6000600180549050905090565b6000600c80549050905090565b600260009054906101000a900473ffffffffffffffffffffffffffffffffffffffff1673ffffffffffffffffffffffffffffffffffffffff166323b872dd333060646040518463ffffffff1660e01b8152600401610b1593929190612714565b6020604051808303816000875af1158015610b34573d6000803e3d6000fd5b505050506040513d601f19601f82011682018060405250810190610b589190612777565b50600c805490508210610ba0576040517f08c379a0000000000000000000000000000000000000000000000000000000008152600401610b97906127f0565b60405180910390fd5b610baa81836113a7565b610bb261177e565b5050565b600260009054906101000a900473ffffffffffffffffffffffffffffffffffffffff1673ffffffffffffffffffffffffffffffffffffffff166323b872dd333060646040518463ffffffff1660e01b8152600401610c1693929190612714565b6020604051808303816000875af1158015610c35573d6000803e3d6000fd5b505050506040513d601f19601f82011682018060405250810190610c599190612777565b50610c648282611938565b60005b600180549050811015610cce57610cbb60018281548110610c8b57610c8a61253e565b5b9060005260206000200160009054906101000a900473ffffffffffffffffffffffffffffffffffffffff16611aa7565b8080610cc690612810565b915050610c67565b50600c6004908060018154018082558091505060019003906000526020600020906008020160009091909190915060008201816000019081610d109190612a10565b5060018201816001019081610d259190612a10565b5060028201548160020155600382015481600301556004820160009054906101000a900460ff168160040160006101000a81548160ff02191690831515021790555060058201548160050155600682015481600601556007820160009054906101000a900460ff168160070160006101000a81548160ff0219169083151502179055506007820160019054906101000a900473ffffffffffffffffffffffffffffffffffffffff168160070160016101000a81548173ffffffffffffffffffffffffffffffffffffffff021916908373ffffffffffffffffffffffffffffffffffffffff1602179055506007820160159054906101000a900460ff168160070160156101000a81548160ff0219169083151502179055505050610e4661177e565b5050565b610e5261177e565b600c8181548110610e6657610e6561253e565b5b9060005260206000209060080201600460008201816000019081610e8a9190612a10565b5060018201816001019081610e9f9190612a10565b5060028201548160020155600382015481600301556004820160009054906101000a900460ff168160040160006101000a81548160ff02191690831515021790555060058201548160050155600682015481600601556007820160009054906101000a900460ff168160070160006101000a81548160ff0219169083151502179055506007820160019054906101000a900473ffffffffffffffffffffffffffffffffffffffff168160070160016101000a81548173ffffffffffffffffffffffffffffffffffffffff021916908373ffffffffffffffffffffffffffffffffffffffff1602179055506007820160159054906101000a900460ff168160070160156101000a81548160ff02191690831515021790555090505050565b606481565b60008054906101000a900473ffffffffffffffffffffffffffffffffffffffff1681565b606481565b600260009054906101000a900473ffffffffffffffffffffffffffffffffffffffff1681565b60048060000180546110219061250d565b80601f016020809104026020016040519081016040528092919081815260200182805461104d9061250d565b801561109a5780601f1061106f5761010080835404028352916020019161109a565b820191906000526020600020905b81548152906001019060200180831161107d57829003601f168201915b5050505050908060010180546110af9061250d565b80601f01602080910402602001604051908101604052809291908181526020018280546110db9061250d565b80156111285780601f106110fd57610100808354040283529160200191611128565b820191906000526020600020905b81548152906001019060200180831161110b57829003601f168201915b5050505050908060020154908060030154908060040160009054906101000a900460ff16908060050154908060060154908060070160009054906101000a900460ff16908060070160019054906101000a900473ffffffffffffffffffffffffffffffffffffffff16908060070160159054906101000a900460ff1690508a565b600080600090506003601060003373ffffffffffffffffffffffffffffffffffffffff1673ffffffffffffffffffffffffffffffffffffffff168152602001908152602001600020541015611233576040517f08c379a000000000000000000000000000000000000000000000000000000000815260040161122a90612b6a565b60405180910390fd5b600360009054906101000a900473ffffffffffffffffffffffffffffffffffffffff1673ffffffffffffffffffffffffffffffffffffffff1663cf378343336040518263ffffffff1660e01b815260040161128e9190612f04565b6020604051808303816000875af11580156112ad573d6000803e3d6000fd5b505050506040513d601f19601f820116820180604052508101906112d19190612f47565b90506003601060003373ffffffffffffffffffffffffffffffffffffffff1673ffffffffffffffffffffffffffffffffffffffff16815260200190815260200160002060008282546113239190612f74565b925050819055508091505090565b600360009054906101000a900473ffffffffffffffffffffffffffffffffffffffff1681565b6101f481565b600f6020528060005260406000206000915090508060000154908060010160009054906101000a900473ffffffffffffffffffffffffffffffffffffffff16908060020154905083565b6000600f60003373ffffffffffffffffffffffffffffffffffffffff1673ffffffffffffffffffffffffffffffffffffffff16815260200190815260200160002090506000816000015411611431576040517f08c379a000000000000000000000000000000000000000000000000000000000815260040161142890612ff4565b60405180910390fd5b8060030182815481106114475761144661253e565b5b90600052602060002090602091828204019190069054906101000a900460ff16156114a7576040517f08c379a000000000000000000000000000000000000000000000000000000000815260040161149e90613060565b60405180910390fd5b60018160030183815481106114bf576114be61253e565b5b90600052602060002090602091828204019190066101000a81548160ff0219169083151502179055508281600201819055506001830361153e578060000154600c83815481106115125761151161253e565b5b9060005260206000209060080201600201600082825461153291906126e0565b9250508190555061157f565b8060000154600c83815481106115575761155661253e565b5b9060005260206000209060080201600301600082825461157791906126e0565b925050819055505b505050565b6001339080600181540180825580915050600190039060005260206000200160009091909190916101000a81548173ffffffffffffffffffffffffffffffffffffffff021916908373ffffffffffffffffffffffffffffffffffffffff1602179055506000601060003373ffffffffffffffffffffffffffffffffffffffff1673ffffffffffffffffffffffffffffffffffffffff1681526020019081526020016000208190555060005b600c805490508110156116d457600f60003373ffffffffffffffffffffffffffffffffffffffff1673ffffffffffffffffffffffffffffffffffffffff168152602001908152602001600020600301600090806001815401808255809150506001900390600052602060002090602091828204019190069091909190916101000a81548160ff02191690831515021790555080806116cc90612810565b91505061162f565b50565b6116e081611b77565b6116e981611c98565b50565b606481565b601060003373ffffffffffffffffffffffffffffffffffffffff1673ffffffffffffffffffffffffffffffffffffffff16815260200190815260200160002054600e81905550565b61012c81565b6001818154811061174f57600080fd5b906000526020600020016000915054906101000a900473ffffffffffffffffffffffffffffffffffffffff1681565b60005b600c8054905081101561192f57611797816116d7565b600c81815481106117ab576117aa61253e565b5b906000526020600020906008020160070160009054906101000a900460ff1680156118065750600c81815481106117e5576117e461253e565b5b906000526020600020906008020160070160159054906101000a900460ff16155b1561191c576001600c82815481106118215761182061253e565b5b906000526020600020906008020160070160156101000a81548160ff021916908315150217905550600260009054906101000a900473ffffffffffffffffffffffffffffffffffffffff1673ffffffffffffffffffffffffffffffffffffffff1663221e0bc6600c838154811061189b5761189a61253e565b5b906000526020600020906008020160070160019054906101000a900473ffffffffffffffffffffffffffffffffffffffff166040518263ffffffff1660e01b81526004016118e991906123bb565b600060405180830381600087803b15801561190357600080fd5b505af1158015611917573d6000803e3d6000fd5b505050505b808061192790612810565b915050611781565b50565b600e5481565b604051806101400160405280838152602001828152602001600081526020016000815260200160001515815260200142815260200161012c81526020016000151581526020013373ffffffffffffffffffffffffffffffffffffffff16815260200160001515815250600460008201518160000190816119b89190613080565b5060208201518160010190816119ce9190613080565b50604082015181600201556060820151816003015560808201518160040160006101000a81548160ff02191690831515021790555060a0820151816005015560c0820151816006015560e08201518160070160006101000a81548160ff0219169083151502179055506101008201518160070160016101000a81548173ffffffffffffffffffffffffffffffffffffffff021916908373ffffffffffffffffffffffffffffffffffffffff1602179055506101208201518160070160156101000a81548160ff0219169083151502179055509050505050565b6001600f60008373ffffffffffffffffffffffffffffffffffffffff1673ffffffffffffffffffffffffffffffffffffffff16815260200190815260200160002060000181905550600f60008273ffffffffffffffffffffffffffffffffffffffff1673ffffffffffffffffffffffffffffffffffffffff168152602001908152602001600020600301600090806001815401808255809150506001900390600052602060002090602091828204019190069091909190916101000a81548160ff02191690831515021790555050565b6000600c8281548110611b8d57611b8c61253e565b5b90600052602060002090600802016006015413611bd4576000600c8281548110611bba57611bb961253e565b5b906000526020600020906008020160060181905550611c3c565b600c8181548110611be857611be761253e565b5b90600052602060002090600802016005015442611c059190612f74565b61012c611c129190613152565b600c8281548110611c2657611c2561253e565b5b9060005260206000209060080201600601819055505b6000600c8281548110611c5257611c5161253e565b5b90600052602060002090600802016006015413611c95576000600c8281548110611c7f57611c7e61253e565b5b9060005260206000209060080201600601819055505b50565b600c8181548110611cac57611cab61253e565b5b906000526020600020906008020160030154600c8281548110611cd257611cd161253e565b5b906000526020600020906008020160020154118015611d1757506000600c8281548110611d0257611d0161253e565b5b90600052602060002090600802016006015413155b8015611d535750600c8181548110611d3257611d3161253e565b5b906000526020600020906008020160070160009054906101000a900460ff16155b15611e75576001600c8281548110611d6e57611d6d61253e565b5b906000526020600020906008020160040160006101000a81548160ff0219169083151502179055506001600c8281548110611dac57611dab61253e565b5b906000526020600020906008020160070160006101000a81548160ff021916908315150217905550600160106000600c8481548110611dee57611ded61253e565b5b906000526020600020906008020160070160019054906101000a900473ffffffffffffffffffffffffffffffffffffffff1673ffffffffffffffffffffffffffffffffffffffff1673ffffffffffffffffffffffffffffffffffffffff1681526020019081526020016000206000828254611e6991906126e0565b92505081905550611ee2565b6000600c8281548110611e8b57611e8a61253e565b5b90600052602060002090600802016006015413611ee1576001600c8281548110611eb857611eb761253e565b5b906000526020600020906008020160040160006101000a81548160ff0219169083151502179055505b5b50565b6000604051905090565b600080fd5b600080fd5b6000819050919050565b611f0c81611ef9565b8114611f1757600080fd5b50565b600081359050611f2981611f03565b92915050565b600060208284031215611f4557611f44611eef565b5b6000611f5384828501611f1a565b91505092915050565b600081519050919050565b600082825260208201905092915050565b60005b83811015611f96578082015181840152602081019050611f7b565b60008484015250505050565b6000601f19601f8301169050919050565b6000611fbe82611f5c565b611fc88185611f67565b9350611fd8818560208601611f78565b611fe181611fa2565b840191505092915050565b611ff581611ef9565b82525050565b60008115159050919050565b61201081611ffb565b82525050565b6000819050919050565b61202981612016565b82525050565b600073ffffffffffffffffffffffffffffffffffffffff82169050919050565b600061205a8261202f565b9050919050565b61206a8161204f565b82525050565b600061014082019050818103600083015261208b818d611fb3565b9050818103602083015261209f818c611fb3565b90506120ae604083018b611fec565b6120bb606083018a611fec565b6120c86080830189612007565b6120d560a0830188611fec565b6120e260c0830187612020565b6120ef60e0830186612007565b6120fd610100830185612061565b61210b610120830184612007565b9b9a5050505050505050505050565b6121238161204f565b811461212e57600080fd5b50565b6000813590506121408161211a565b92915050565b6000806040838503121561215d5761215c611eef565b5b600061216b85828601612131565b925050602061217c85828601611f1a565b9150509250929050565b60006020828403121561219c5761219b611eef565b5b60006121aa84828501612131565b91505092915050565b60006020820190506121c86000830184611fec565b92915050565b600080604083850312156121e5576121e4611eef565b5b60006121f385828601611f1a565b925050602061220485828601611f1a565b9150509250929050565b600080fd5b600080fd5b7f4e487b7100000000000000000000000000000000000000000000000000000000600052604160045260246000fd5b61225082611fa2565b810181811067ffffffffffffffff8211171561226f5761226e612218565b5b80604052505050565b6000612282611ee5565b905061228e8282612247565b919050565b600067ffffffffffffffff8211156122ae576122ad612218565b5b6122b782611fa2565b9050602081019050919050565b82818337600083830152505050565b60006122e66122e184612293565b612278565b90508281526020810184848401111561230257612301612213565b5b61230d8482856122c4565b509392505050565b600082601f83011261232a5761232961220e565b5b813561233a8482602086016122d3565b91505092915050565b6000806040838503121561235a57612359611eef565b5b600083013567ffffffffffffffff81111561237857612377611ef4565b5b61238485828601612315565b925050602083013567ffffffffffffffff8111156123a5576123a4611ef4565b5b6123b185828601612315565b9150509250929050565b60006020820190506123d06000830184612061565b92915050565b6000819050919050565b60006123fb6123f66123f18461202f565b6123d6565b61202f565b9050919050565b600061240d826123e0565b9050919050565b600061241f82612402565b9050919050565b61242f81612414565b82525050565b600060208201905061244a6000830184612426565b92915050565b600061245b82612402565b9050919050565b61246b81612450565b82525050565b60006020820190506124866000830184612462565b92915050565b60006060820190506124a16000830186611fec565b6124ae6020830185612061565b6124bb6040830184611fec565b949350505050565b60006020820190506124d86000830184612020565b92915050565b7f4e487b7100000000000000000000000000000000000000000000000000000000600052602260045260246000fd5b6000600282049050600182168061252557607f821691505b602082108103612538576125376124de565b5b50919050565b7f4e487b7100000000000000000000000000000000000000000000000000000000600052603260045260246000fd5b7f596f7520616c726561647920766f7465642e0000000000000000000000000000600082015250565b60006125a3601283611f67565b91506125ae8261256d565b602082019050919050565b600060208201905081810360008301526125d281612596565b9050919050565b7f53656c662d64656c65676174696f6e20697320646973616c6c6f7765642e0000600082015250565b600061260f601e83611f67565b915061261a826125d9565b602082019050919050565b6000602082019050818103600083015261263e81612602565b9050919050565b7f466f756e64206c6f6f7020696e2064656c65676174696f6e2e00000000000000600082015250565b600061267b601983611f67565b915061268682612645565b602082019050919050565b600060208201905081810360008301526126aa8161266e565b9050919050565b7f4e487b7100000000000000000000000000000000000000000000000000000000600052601160045260246000fd5b60006126eb82611ef9565b91506126f683611ef9565b925082820190508082111561270e5761270d6126b1565b5b92915050565b60006060820190506127296000830186612061565b6127366020830185612061565b6127436040830184611fec565b949350505050565b61275481611ffb565b811461275f57600080fd5b50565b6000815190506127718161274b565b92915050565b60006020828403121561278d5761278c611eef565b5b600061279b84828501612762565b91505092915050565b7f596f75722070726f706f73616c206973206e6f7420617661696c61626c650000600082015250565b60006127da601e83611f67565b91506127e5826127a4565b602082019050919050565b60006020820190508181036000830152612809816127cd565b9050919050565b600061281b82611ef9565b91507fffffffffffffffffffffffffffffffffffffffffffffffffffffffffffffffff820361284d5761284c6126b1565b5b600182019050919050565b6000815490506128678161250d565b9050919050565b60008190508160005260206000209050919050565b60006020601f8301049050919050565b600082821b905092915050565b6000600883026128d07fffffffffffffffffffffffffffffffffffffffffffffffffffffffffffffffff82612893565b6128da8683612893565b95508019841693508086168417925050509392505050565b600061290d61290861290384611ef9565b6123d6565b611ef9565b9050919050565b6000819050919050565b612927836128f2565b61293b61293382612914565b8484546128a0565b825550505050565b600090565b612950612943565b61295b81848461291e565b505050565b5b8181101561297f57612974600082612948565b600181019050612961565b5050565b601f8211156129c4576129958161286e565b61299e84612883565b810160208510156129ad578190505b6129c16129b985612883565b830182612960565b50505b505050565b600082821c905092915050565b60006129e7600019846008026129c9565b1980831691505092915050565b6000612a0083836129d6565b9150826002028217905092915050565b818103612a1e575050612af6565b612a2782612858565b67ffffffffffffffff811115612a4057612a3f612218565b5b612a4a825461250d565b612a55828285612983565b6000601f831160018114612a845760008415612a72578287015490505b612a7c85826129f4565b865550612aef565b601f198416612a928761286e565b9650612a9d8661286e565b60005b82811015612ac557848901548255600182019150600185019450602081019050612aa0565b86831015612ae25784890154612ade601f8916826129d6565b8355505b6001600288020188555050505b5050505050505b565b7f596f7520646f6e27742068617665207075626c6973686564206d6f726520746860008201527f616e2074687265652070726f706f73616c732e00000000000000000000000000602082015250565b6000612b54603383611f67565b9150612b5f82612af8565b604082019050919050565b60006020820190508181036000830152612b8381612b47565b9050919050565b7f68747470733a2f2f696d6167652e62616964752e636f6d2f7365617263682f6460008201527f657461696c3f63743d353033333136343830267a3d302669706e3d6426776f7260208201527f643d2545372538312541422545372541452541442668733d3026706e3d31267360408201527f706e3d302664693d34363133373334352670693d3026726e3d3126746e3d626160608201527f696475696d61676564657461696c2669733d30253243302669653d7574662d3860808201527f266f653d7574662d3826636c3d32266c6d3d2d312663733d313330323837303060a08201527f353125324332363634353835313236266f733d3330393038353532353825324360c08201527f313038353539353636352673696d69643d34323334363831333532253243353860e08201527f3832383632333626616470696369643d30266c706e3d30266c6e3d33302666726101008201527f3d616c6126666d3d26736d653d2663673d266264747970653d3131266f7269716101208201527f756572793d254537253831254142254537254145254144266f626a75726c3d686101408201527f7474707325334125324625324670696373332e62616964752e636f6d253246666101608201527f65656425324630386637393035323938323237323065303636623132323833666101808201527f35653236346466303166616264662e706e67253430665f6175746f253346746f6101a08201527f6b656e25334431396235653962636633336538353838633539326266333961326101c08201527f6234636666332666726f6d75726c3d697070725f7a324325323471417a6448336101e08201527f46417a644833466b77743374776977355f7a2532366533426b777431375f7a256102008201527f3236653342763534417a64483346662533467431253344383039306c6e6d62386102208201527f63306c6e61646c6d63622532366f7536253344667274316a36253236753536256102408201527f334472762667736d3d2669736c6973743d2671756572796c6973743d266479546102608201527f61625374723d4d4377784c444d734e6977794c4451734e5377344c4463734f516102808201527f25334425334400000000000000000000000000000000000000000000000000006102a082015250565b6000612eed6102a683611f67565b9150612ef882612b8a565b6102c082019050919050565b6000604082019050612f196000830184612061565b8181036020830152612f2a81612edf565b905092915050565b600081519050612f4181611f03565b92915050565b600060208284031215612f5d57612f5c611eef565b5b6000612f6b84828501612f32565b91505092915050565b6000612f7f82611ef9565b9150612f8a83611ef9565b9250828203905081811115612fa257612fa16126b1565b5b92915050565b7f596f7520646f6e2774206861766520726967687420746f20766f74652e000000600082015250565b6000612fde601d83611f67565b9150612fe982612fa8565b602082019050919050565b6000602082019050818103600083015261300d81612fd1565b9050919050565b7f416c726561647920766f74656420746869732070726f706f73616c2e00000000600082015250565b600061304a601c83611f67565b915061305582613014565b602082019050919050565b600060208201905081810360008301526130798161303d565b9050919050565b61308982611f5c565b67ffffffffffffffff8111156130a2576130a1612218565b5b6130ac825461250d565b6130b7828285612983565b600060209050601f8311600181146130ea57600084156130d8578287015190505b6130e285826129f4565b86555061314a565b601f1984166130f88661286e565b60005b82811015613120578489015182556001820191506020850194506020810190506130fb565b8683101561313d5784890151613139601f8916826129d6565b8355505b6001600288020188555050505b505050505050565b600061315d82612016565b915061316883612016565b925082820390508181126000841216828213600085121516171561318f5761318e6126b1565b5b9291505056fea26469706673582212201699e8e2adeed492d13be26230a4478169d1a0dd82b8c12773bdf92ba6ced9d764736f6c6343000811003360806040523480156200001157600080fd5b5060405162001d0138038062001d018339818101604052810190620000379190620001fa565b818181600390816200004a9190620004ca565b5080600490816200005c9190620004ca565b5050505050620005b1565b6000604051905090565b600080fd5b600080fd5b600080fd5b600080fd5b6000601f19601f8301169050919050565b7f4e487b7100000000000000000000000000000000000000000000000000000000600052604160045260246000fd5b620000d08262000085565b810181811067ffffffffffffffff82111715620000f257620000f162000096565b5b80604052505050565b60006200010762000067565b9050620001158282620000c5565b919050565b600067ffffffffffffffff82111562000138576200013762000096565b5b620001438262000085565b9050602081019050919050565b60005b838110156200017057808201518184015260208101905062000153565b60008484015250505050565b6000620001936200018d846200011a565b620000fb565b905082815260208101848484011115620001b257620001b162000080565b5b620001bf84828562000150565b509392505050565b600082601f830112620001df57620001de6200007b565b5b8151620001f18482602086016200017c565b91505092915050565b6000806040838503121562000214576200021362000071565b5b600083015167ffffffffffffffff81111562000235576200023462000076565b5b6200024385828601620001c7565b925050602083015167ffffffffffffffff81111562000267576200026662000076565b5b6200027585828601620001c7565b9150509250929050565b600081519050919050565b7f4e487b7100000000000000000000000000000000000000000000000000000000600052602260045260246000fd5b60006002820490506001821680620002d257607f821691505b602082108103620002e857620002e76200028a565b5b50919050565b60008190508160005260206000209050919050565b60006020601f8301049050919050565b600082821b905092915050565b600060088302620003527fffffffffffffffffffffffffffffffffffffffffffffffffffffffffffffffff8262000313565b6200035e868362000313565b95508019841693508086168417925050509392505050565b6000819050919050565b6000819050919050565b6000620003ab620003a56200039f8462000376565b62000380565b62000376565b9050919050565b6000819050919050565b620003c7836200038a565b620003df620003d682620003b2565b84845462000320565b825550505050565b600090565b620003f6620003e7565b62000403818484620003bc565b505050565b5b818110156200042b576200041f600082620003ec565b60018101905062000409565b5050565b601f8211156200047a576200044481620002ee565b6200044f8462000303565b810160208510156200045f578190505b620004776200046e8562000303565b83018262000408565b50505b505050565b600082821c905092915050565b60006200049f600019846008026200047f565b1980831691505092915050565b6000620004ba83836200048c565b9150826002028217905092915050565b620004d5826200027f565b67ffffffffffffffff811115620004f157620004f062000096565b5b620004fd8254620002b9565b6200050a8282856200042f565b600060209050601f8311600181146200054257600084156200052d578287015190505b620005398582620004ac565b865550620005a9565b601f1984166200055286620002ee565b60005b828110156200057c5784890151825560018201915060208501945060208101905062000555565b868310156200059c578489015162000598601f8916826200048c565b8355505b6001600288020188555050505b505050505050565b61174080620005c16000396000f3fe608060405234801561001057600080fd5b50600436106100ea5760003560e01c8063395093511161008c578063a457c2d711610066578063a457c2d71461024d578063a9059cbb1461027d578063dd62ed3e146102ad578063e7278e7f146102dd576100ea565b806339509351146101cf57806370a08231146101ff57806395d89b411461022f576100ea565b8063221e0bc6116100c8578063221e0bc61461015b57806323b872dd14610177578063313ce567146101a75780633884d635146101c5576100ea565b806306fdde03146100ef578063095ea7b31461010d57806318160ddd1461013d575b600080fd5b6100f76102fb565b6040516101049190610f1f565b60405180910390f35b61012760048036038101906101229190610fda565b61038d565b6040516101349190611035565b60405180910390f35b6101456103b0565b604051610152919061105f565b60405180910390f35b6101756004803603810190610170919061107a565b6103ba565b005b610191600480360381019061018c91906110a7565b6103c9565b60405161019e9190611035565b60405180910390f35b6101af6103f8565b6040516101bc9190611116565b60405180910390f35b6101cd610401565b005b6101e960048036038101906101e49190610fda565b6105d1565b6040516101f69190611035565b60405180910390f35b6102196004803603810190610214919061107a565b610608565b604051610226919061105f565b60405180910390f35b610237610650565b6040516102449190610f1f565b60405180910390f35b61026760048036038101906102629190610fda565b6106e2565b6040516102749190611035565b60405180910390f35b61029760048036038101906102929190610fda565b610759565b6040516102a49190611035565b60405180910390f35b6102c760048036038101906102c29190611131565b61077c565b6040516102d4919061105f565b60405180910390f35b6102e5610803565b6040516102f2919061105f565b60405180910390f35b60606003805461030a906111a0565b80601f0160208091040260200160405190810160405280929190818152602001828054610336906111a0565b80156103835780601f1061035857610100808354040283529160200191610383565b820191906000526020600020905b81548152906001019060200180831161036657829003601f168201915b5050505050905090565b60008061039861084a565b90506103a5818585610852565b600191505092915050565b6000600254905090565b6103c6816101f4610a1b565b50565b6000806103d461084a565b90506103e1858285610b7a565b6103ec858585610c06565b60019150509392505050565b60006012905090565b60001515600560003373ffffffffffffffffffffffffffffffffffffffff1673ffffffffffffffffffffffffffffffffffffffff16815260200190815260200160002060009054906101000a900460ff16151514610494576040517f08c379a000000000000000000000000000000000000000000000000000000000815260040161048b90611243565b60405180910390fd5b6104a0336103e8610a1b565b6001600660003373ffffffffffffffffffffffffffffffffffffffff1673ffffffffffffffffffffffffffffffffffffffff168152602001908152602001600020546104ec9190611292565b600660003373ffffffffffffffffffffffffffffffffffffffff1673ffffffffffffffffffffffffffffffffffffffff168152602001908152602001600020819055506002600660003373ffffffffffffffffffffffffffffffffffffffff1673ffffffffffffffffffffffffffffffffffffffff16815260200190815260200160002054106105cf576001600560003373ffffffffffffffffffffffffffffffffffffffff1673ffffffffffffffffffffffffffffffffffffffff16815260200190815260200160002060006101000a81548160ff0219169083151502179055505b565b6000806105dc61084a565b90506105fd8185856105ee858961077c565b6105f89190611292565b610852565b600191505092915050565b60008060008373ffffffffffffffffffffffffffffffffffffffff1673ffffffffffffffffffffffffffffffffffffffff168152602001908152602001600020549050919050565b60606004805461065f906111a0565b80601f016020809104026020016040519081016040528092919081815260200182805461068b906111a0565b80156106d85780601f106106ad576101008083540402835291602001916106d8565b820191906000526020600020905b8154815290600101906020018083116106bb57829003601f168201915b5050505050905090565b6000806106ed61084a565b905060006106fb828661077c565b905083811015610740576040517f08c379a000000000000000000000000000000000000000000000000000000000815260040161073790611338565b60405180910390fd5b61074d8286868403610852565b60019250505092915050565b60008061076461084a565b9050610771818585610c06565b600191505092915050565b6000600160008473ffffffffffffffffffffffffffffffffffffffff1673ffffffffffffffffffffffffffffffffffffffff16815260200190815260200160002060008373ffffffffffffffffffffffffffffffffffffffff1673ffffffffffffffffffffffffffffffffffffffff16815260200190815260200160002054905092915050565b6000600660003373ffffffffffffffffffffffffffffffffffffffff1673ffffffffffffffffffffffffffffffffffffffff16815260200190815260200160002054905090565b600033905090565b600073ffffffffffffffffffffffffffffffffffffffff168373ffffffffffffffffffffffffffffffffffffffff16036108c1576040517f08c379a00000000000000000000000000000000000000000000000000000000081526004016108b8906113ca565b60405180910390fd5b600073ffffffffffffffffffffffffffffffffffffffff168273ffffffffffffffffffffffffffffffffffffffff1603610930576040517f08c379a00000000000000000000000000000000000000000000000000000000081526004016109279061145c565b60405180910390fd5b80600160008573ffffffffffffffffffffffffffffffffffffffff1673ffffffffffffffffffffffffffffffffffffffff16815260200190815260200160002060008473ffffffffffffffffffffffffffffffffffffffff1673ffffffffffffffffffffffffffffffffffffffff168152602001908152602001600020819055508173ffffffffffffffffffffffffffffffffffffffff168373ffffffffffffffffffffffffffffffffffffffff167f8c5be1e5ebec7d5bd14f71427d1e84f3dd0314c0f7b2291e5b200ac8c7c3b92583604051610a0e919061105f565b60405180910390a3505050565b600073ffffffffffffffffffffffffffffffffffffffff168273ffffffffffffffffffffffffffffffffffffffff1603610a8a576040517f08c379a0000000000000000000000000000000000000000000000000000000008152600401610a81906114c8565b60405180910390fd5b610a9660008383610e85565b8060026000828254610aa89190611292565b92505081905550806000808473ffffffffffffffffffffffffffffffffffffffff1673ffffffffffffffffffffffffffffffffffffffff1681526020019081526020016000206000828254610afd9190611292565b925050819055508173ffffffffffffffffffffffffffffffffffffffff16600073ffffffffffffffffffffffffffffffffffffffff167fddf252ad1be2c89b69c2b068fc378daa952ba7f163c4a11628f55a4df523b3ef83604051610b62919061105f565b60405180910390a3610b7660008383610e8a565b5050565b6000610b86848461077c565b90507fffffffffffffffffffffffffffffffffffffffffffffffffffffffffffffffff8114610c005781811015610bf2576040517f08c379a0000000000000000000000000000000000000000000000000000000008152600401610be990611534565b60405180910390fd5b610bff8484848403610852565b5b50505050565b600073ffffffffffffffffffffffffffffffffffffffff168373ffffffffffffffffffffffffffffffffffffffff1603610c75576040517f08c379a0000000000000000000000000000000000000000000000000000000008152600401610c6c906115c6565b60405180910390fd5b600073ffffffffffffffffffffffffffffffffffffffff168273ffffffffffffffffffffffffffffffffffffffff1603610ce4576040517f08c379a0000000000000000000000000000000000000000000000000000000008152600401610cdb90611658565b60405180910390fd5b610cef838383610e85565b60008060008573ffffffffffffffffffffffffffffffffffffffff1673ffffffffffffffffffffffffffffffffffffffff16815260200190815260200160002054905081811015610d75576040517f08c379a0000000000000000000000000000000000000000000000000000000008152600401610d6c906116ea565b60405180910390fd5b8181036000808673ffffffffffffffffffffffffffffffffffffffff1673ffffffffffffffffffffffffffffffffffffffff16815260200190815260200160002081905550816000808573ffffffffffffffffffffffffffffffffffffffff1673ffffffffffffffffffffffffffffffffffffffff1681526020019081526020016000206000828254610e089190611292565b925050819055508273ffffffffffffffffffffffffffffffffffffffff168473ffffffffffffffffffffffffffffffffffffffff167fddf252ad1be2c89b69c2b068fc378daa952ba7f163c4a11628f55a4df523b3ef84604051610e6c919061105f565b60405180910390a3610e7f848484610e8a565b50505050565b505050565b505050565b600081519050919050565b600082825260208201905092915050565b60005b83811015610ec9578082015181840152602081019050610eae565b60008484015250505050565b6000601f19601f8301169050919050565b6000610ef182610e8f565b610efb8185610e9a565b9350610f0b818560208601610eab565b610f1481610ed5565b840191505092915050565b60006020820190508181036000830152610f398184610ee6565b905092915050565b600080fd5b600073ffffffffffffffffffffffffffffffffffffffff82169050919050565b6000610f7182610f46565b9050919050565b610f8181610f66565b8114610f8c57600080fd5b50565b600081359050610f9e81610f78565b92915050565b6000819050919050565b610fb781610fa4565b8114610fc257600080fd5b50565b600081359050610fd481610fae565b92915050565b60008060408385031215610ff157610ff0610f41565b5b6000610fff85828601610f8f565b925050602061101085828601610fc5565b9150509250929050565b60008115159050919050565b61102f8161101a565b82525050565b600060208201905061104a6000830184611026565b92915050565b61105981610fa4565b82525050565b60006020820190506110746000830184611050565b92915050565b6000602082840312156110905761108f610f41565b5b600061109e84828501610f8f565b91505092915050565b6000806000606084860312156110c0576110bf610f41565b5b60006110ce86828701610f8f565b93505060206110df86828701610f8f565b92505060406110f086828701610fc5565b9150509250925092565b600060ff82169050919050565b611110816110fa565b82525050565b600060208201905061112b6000830184611107565b92915050565b6000806040838503121561114857611147610f41565b5b600061115685828601610f8f565b925050602061116785828601610f8f565b9150509250929050565b7f4e487b7100000000000000000000000000000000000000000000000000000000600052602260045260246000fd5b600060028204905060018216806111b857607f821691505b6020821081036111cb576111ca611171565b5b50919050565b7f5468697320757365722068617320636c61696d656420616c6c2061697264726f60008201527f707320616c726561647900000000000000000000000000000000000000000000602082015250565b600061122d602a83610e9a565b9150611238826111d1565b604082019050919050565b6000602082019050818103600083015261125c81611220565b9050919050565b7f4e487b7100000000000000000000000000000000000000000000000000000000600052601160045260246000fd5b600061129d82610fa4565b91506112a883610fa4565b92508282019050808211156112c0576112bf611263565b5b92915050565b7f45524332303a2064656372656173656420616c6c6f77616e63652062656c6f7760008201527f207a65726f000000000000000000000000000000000000000000000000000000602082015250565b6000611322602583610e9a565b915061132d826112c6565b604082019050919050565b6000602082019050818103600083015261135181611315565b9050919050565b7f45524332303a20617070726f76652066726f6d20746865207a65726f2061646460008201527f7265737300000000000000000000000000000000000000000000000000000000602082015250565b60006113b4602483610e9a565b91506113bf82611358565b604082019050919050565b600060208201905081810360008301526113e3816113a7565b9050919050565b7f45524332303a20617070726f766520746f20746865207a65726f20616464726560008201527f7373000000000000000000000000000000000000000000000000000000000000602082015250565b6000611446602283610e9a565b9150611451826113ea565b604082019050919050565b6000602082019050818103600083015261147581611439565b9050919050565b7f45524332303a206d696e7420746f20746865207a65726f206164647265737300600082015250565b60006114b2601f83610e9a565b91506114bd8261147c565b602082019050919050565b600060208201905081810360008301526114e1816114a5565b9050919050565b7f45524332303a20696e73756666696369656e7420616c6c6f77616e6365000000600082015250565b600061151e601d83610e9a565b9150611529826114e8565b602082019050919050565b6000602082019050818103600083015261154d81611511565b9050919050565b7f45524332303a207472616e736665722066726f6d20746865207a65726f20616460008201527f6472657373000000000000000000000000000000000000000000000000000000602082015250565b60006115b0602583610e9a565b91506115bb82611554565b604082019050919050565b600060208201905081810360008301526115df816115a3565b9050919050565b7f45524332303a207472616e7366657220746f20746865207a65726f206164647260008201527f6573730000000000000000000000000000000000000000000000000000000000602082015250565b6000611642602383610e9a565b915061164d826115e6565b604082019050919050565b6000602082019050818103600083015261167181611635565b9050919050565b7f45524332303a207472616e7366657220616d6f756e742065786365656473206260008201527f616c616e63650000000000000000000000000000000000000000000000000000602082015250565b60006116d4602683610e9a565b91506116df82611678565b604082019050919050565b60006020820190508181036000830152611703816116c7565b905091905056fea2646970667358221220264df1170840fa2c3595a4339ef42b05ad72f04ff9fe4c14909940a6b8f9141664736f6c6343000811003360806040523480156200001157600080fd5b506040518060400160405280600881526020017f47414d454954454d0000000000000000000000000000000000000000000000008152506040518060400160405280600381526020017f49544d000000000000000000000000000000000000000000000000000000000081525081600090816200008f919062000324565b508060019081620000a1919062000324565b5050506200040b565b600081519050919050565b7f4e487b7100000000000000000000000000000000000000000000000000000000600052604160045260246000fd5b7f4e487b7100000000000000000000000000000000000000000000000000000000600052602260045260246000fd5b600060028204905060018216806200012c57607f821691505b602082108103620001425762000141620000e4565b5b50919050565b60008190508160005260206000209050919050565b60006020601f8301049050919050565b600082821b905092915050565b600060088302620001ac7fffffffffffffffffffffffffffffffffffffffffffffffffffffffffffffffff826200016d565b620001b886836200016d565b95508019841693508086168417925050509392505050565b6000819050919050565b6000819050919050565b600062000205620001ff620001f984620001d0565b620001da565b620001d0565b9050919050565b6000819050919050565b6200022183620001e4565b6200023962000230826200020c565b8484546200017a565b825550505050565b600090565b6200025062000241565b6200025d81848462000216565b505050565b5b8181101562000285576200027960008262000246565b60018101905062000263565b5050565b601f821115620002d4576200029e8162000148565b620002a9846200015d565b81016020851015620002b9578190505b620002d1620002c8856200015d565b83018262000262565b50505b505050565b600082821c905092915050565b6000620002f960001984600802620002d9565b1980831691505092915050565b6000620003148383620002e6565b9150826002028217905092915050565b6200032f82620000aa565b67ffffffffffffffff8111156200034b576200034a620000b5565b5b62000357825462000113565b6200036482828562000289565b600060209050601f8311600181146200039c576000841562000387578287015190505b62000393858262000306565b86555062000403565b601f198416620003ac8662000148565b60005b82811015620003d657848901518255600182019150602085019450602081019050620003af565b86831015620003f65784890151620003f2601f891682620002e6565b8355505b6001600288020188555050505b505050505050565b612a37806200041b6000396000f3fe608060405234801561001057600080fd5b50600436106100ea5760003560e01c806370a082311161008c578063b88d4fde11610066578063b88d4fde1461025b578063c87b56dd14610277578063cf378343146102a7578063e985e9c5146102d7576100ea565b806370a08231146101f157806395d89b4114610221578063a22cb4651461023f576100ea565b8063095ea7b3116100c8578063095ea7b31461016d57806323b872dd1461018957806342842e0e146101a55780636352211e146101c1576100ea565b806301ffc9a7146100ef57806306fdde031461011f578063081812fc1461013d575b600080fd5b610109600480360381019061010491906117b6565b610307565b60405161011691906117fe565b60405180910390f35b6101276103e9565b60405161013491906118a9565b60405180910390f35b61015760048036038101906101529190611901565b61047b565b604051610164919061196f565b60405180910390f35b610187600480360381019061018291906119b6565b6104c1565b005b6101a3600480360381019061019e91906119f6565b6105d8565b005b6101bf60048036038101906101ba91906119f6565b610638565b005b6101db60048036038101906101d69190611901565b610658565b6040516101e8919061196f565b60405180910390f35b61020b60048036038101906102069190611a49565b610709565b6040516102189190611a85565b60405180910390f35b6102296107c0565b60405161023691906118a9565b60405180910390f35b61025960048036038101906102549190611acc565b610852565b005b61027560048036038101906102709190611c41565b610868565b005b610291600480360381019061028c9190611901565b6108ca565b60405161029e91906118a9565b60405180910390f35b6102c160048036038101906102bc9190611d65565b6109dc565b6040516102ce9190611a85565b60405180910390f35b6102f160048036038101906102ec9190611dc1565b610a14565b6040516102fe91906117fe565b60405180910390f35b60007f80ac58cd000000000000000000000000000000000000000000000000000000007bffffffffffffffffffffffffffffffffffffffffffffffffffffffff1916827bffffffffffffffffffffffffffffffffffffffffffffffffffffffff191614806103d257507f5b5e139f000000000000000000000000000000000000000000000000000000007bffffffffffffffffffffffffffffffffffffffffffffffffffffffff1916827bffffffffffffffffffffffffffffffffffffffffffffffffffffffff1916145b806103e257506103e182610aa8565b5b9050919050565b6060600080546103f890611e30565b80601f016020809104026020016040519081016040528092919081815260200182805461042490611e30565b80156104715780601f1061044657610100808354040283529160200191610471565b820191906000526020600020905b81548152906001019060200180831161045457829003601f168201915b5050505050905090565b600061048682610b12565b6004600083815260200190815260200160002060009054906101000a900473ffffffffffffffffffffffffffffffffffffffff169050919050565b60006104cc82610658565b90508073ffffffffffffffffffffffffffffffffffffffff168373ffffffffffffffffffffffffffffffffffffffff160361053c576040517f08c379a000000000000000000000000000000000000000000000000000000000815260040161053390611ed3565b60405180910390fd5b8073ffffffffffffffffffffffffffffffffffffffff1661055b610b5d565b73ffffffffffffffffffffffffffffffffffffffff16148061058a575061058981610584610b5d565b610a14565b5b6105c9576040517f08c379a00000000000000000000000000000000000000000000000000000000081526004016105c090611f65565b60405180910390fd5b6105d38383610b65565b505050565b6105e96105e3610b5d565b82610c1e565b610628576040517f08c379a000000000000000000000000000000000000000000000000000000000815260040161061f90611ff7565b60405180910390fd5b610633838383610cb3565b505050565b61065383838360405180602001604052806000815250610868565b505050565b6000806002600084815260200190815260200160002060009054906101000a900473ffffffffffffffffffffffffffffffffffffffff169050600073ffffffffffffffffffffffffffffffffffffffff168173ffffffffffffffffffffffffffffffffffffffff1603610700576040517f08c379a00000000000000000000000000000000000000000000000000000000081526004016106f790612063565b60405180910390fd5b80915050919050565b60008073ffffffffffffffffffffffffffffffffffffffff168273ffffffffffffffffffffffffffffffffffffffff1603610779576040517f08c379a0000000000000000000000000000000000000000000000000000000008152600401610770906120f5565b60405180910390fd5b600360008373ffffffffffffffffffffffffffffffffffffffff1673ffffffffffffffffffffffffffffffffffffffff168152602001908152602001600020549050919050565b6060600180546107cf90611e30565b80601f01602080910402602001604051908101604052809291908181526020018280546107fb90611e30565b80156108485780601f1061081d57610100808354040283529160200191610848565b820191906000526020600020905b81548152906001019060200180831161082b57829003601f168201915b5050505050905090565b61086461085d610b5d565b8383610f19565b5050565b610879610873610b5d565b83610c1e565b6108b8576040517f08c379a00000000000000000000000000000000000000000000000000000000081526004016108af90611ff7565b60405180910390fd5b6108c484848484611085565b50505050565b60606108d582610b12565b60006006600084815260200190815260200160002080546108f590611e30565b80601f016020809104026020016040519081016040528092919081815260200182805461092190611e30565b801561096e5780601f106109435761010080835404028352916020019161096e565b820191906000526020600020905b81548152906001019060200180831161095157829003601f168201915b50505050509050600061097f6110e1565b905060008151036109945781925050506109d7565b6000825111156109c95780826040516020016109b1929190612151565b604051602081830303815290604052925050506109d7565b6109d2846110f8565b925050505b919050565b60006109e86007611160565b60006109f46007611176565b9050610a008482611184565b610a0a818461135d565b8091505092915050565b6000600560008473ffffffffffffffffffffffffffffffffffffffff1673ffffffffffffffffffffffffffffffffffffffff16815260200190815260200160002060008373ffffffffffffffffffffffffffffffffffffffff1673ffffffffffffffffffffffffffffffffffffffff16815260200190815260200160002060009054906101000a900460ff16905092915050565b60007f01ffc9a7000000000000000000000000000000000000000000000000000000007bffffffffffffffffffffffffffffffffffffffffffffffffffffffff1916827bffffffffffffffffffffffffffffffffffffffffffffffffffffffff1916149050919050565b610b1b816113ca565b610b5a576040517f08c379a0000000000000000000000000000000000000000000000000000000008152600401610b5190612063565b60405180910390fd5b50565b600033905090565b816004600083815260200190815260200160002060006101000a81548173ffffffffffffffffffffffffffffffffffffffff021916908373ffffffffffffffffffffffffffffffffffffffff160217905550808273ffffffffffffffffffffffffffffffffffffffff16610bd883610658565b73ffffffffffffffffffffffffffffffffffffffff167f8c5be1e5ebec7d5bd14f71427d1e84f3dd0314c0f7b2291e5b200ac8c7c3b92560405160405180910390a45050565b600080610c2a83610658565b90508073ffffffffffffffffffffffffffffffffffffffff168473ffffffffffffffffffffffffffffffffffffffff161480610c6c5750610c6b8185610a14565b5b80610caa57508373ffffffffffffffffffffffffffffffffffffffff16610c928461047b565b73ffffffffffffffffffffffffffffffffffffffff16145b91505092915050565b8273ffffffffffffffffffffffffffffffffffffffff16610cd382610658565b73ffffffffffffffffffffffffffffffffffffffff1614610d29576040517f08c379a0000000000000000000000000000000000000000000000000000000008152600401610d20906121e7565b60405180910390fd5b600073ffffffffffffffffffffffffffffffffffffffff168273ffffffffffffffffffffffffffffffffffffffff1603610d98576040517f08c379a0000000000000000000000000000000000000000000000000000000008152600401610d8f90612279565b60405180910390fd5b610da3838383611436565b610dae600082610b65565b6001600360008573ffffffffffffffffffffffffffffffffffffffff1673ffffffffffffffffffffffffffffffffffffffff1681526020019081526020016000206000828254610dfe91906122c8565b925050819055506001600360008473ffffffffffffffffffffffffffffffffffffffff1673ffffffffffffffffffffffffffffffffffffffff1681526020019081526020016000206000828254610e5591906122fc565b92505081905550816002600083815260200190815260200160002060006101000a81548173ffffffffffffffffffffffffffffffffffffffff021916908373ffffffffffffffffffffffffffffffffffffffff160217905550808273ffffffffffffffffffffffffffffffffffffffff168473ffffffffffffffffffffffffffffffffffffffff167fddf252ad1be2c89b69c2b068fc378daa952ba7f163c4a11628f55a4df523b3ef60405160405180910390a4610f1483838361143b565b505050565b8173ffffffffffffffffffffffffffffffffffffffff168373ffffffffffffffffffffffffffffffffffffffff1603610f87576040517f08c379a0000000000000000000000000000000000000000000000000000000008152600401610f7e9061237c565b60405180910390fd5b80600560008573ffffffffffffffffffffffffffffffffffffffff1673ffffffffffffffffffffffffffffffffffffffff16815260200190815260200160002060008473ffffffffffffffffffffffffffffffffffffffff1673ffffffffffffffffffffffffffffffffffffffff16815260200190815260200160002060006101000a81548160ff0219169083151502179055508173ffffffffffffffffffffffffffffffffffffffff168373ffffffffffffffffffffffffffffffffffffffff167f17307eab39ab6107e8899845ad3d59bd9653f200f220920489ca2b5937696c318360405161107891906117fe565b60405180910390a3505050565b611090848484610cb3565b61109c84848484611440565b6110db576040517f08c379a00000000000000000000000000000000000000000000000000000000081526004016110d29061240e565b60405180910390fd5b50505050565b606060405180602001604052806000815250905090565b606061110382610b12565b600061110d6110e1565b9050600081511161112d5760405180602001604052806000815250611158565b80611137846115c7565b604051602001611148929190612151565b6040516020818303038152906040525b915050919050565b6001816000016000828254019250508190555050565b600081600001549050919050565b600073ffffffffffffffffffffffffffffffffffffffff168273ffffffffffffffffffffffffffffffffffffffff16036111f3576040517f08c379a00000000000000000000000000000000000000000000000000000000081526004016111ea9061247a565b60405180910390fd5b6111fc816113ca565b1561123c576040517f08c379a0000000000000000000000000000000000000000000000000000000008152600401611233906124e6565b60405180910390fd5b61124860008383611436565b6001600360008473ffffffffffffffffffffffffffffffffffffffff1673ffffffffffffffffffffffffffffffffffffffff168152602001908152602001600020600082825461129891906122fc565b92505081905550816002600083815260200190815260200160002060006101000a81548173ffffffffffffffffffffffffffffffffffffffff021916908373ffffffffffffffffffffffffffffffffffffffff160217905550808273ffffffffffffffffffffffffffffffffffffffff16600073ffffffffffffffffffffffffffffffffffffffff167fddf252ad1be2c89b69c2b068fc378daa952ba7f163c4a11628f55a4df523b3ef60405160405180910390a46113596000838361143b565b5050565b611366826113ca565b6113a5576040517f08c379a000000000000000000000000000000000000000000000000000000000815260040161139c90612578565b60405180910390fd5b806006600084815260200190815260200160002090816113c59190612744565b505050565b60008073ffffffffffffffffffffffffffffffffffffffff166002600084815260200190815260200160002060009054906101000a900473ffffffffffffffffffffffffffffffffffffffff1673ffffffffffffffffffffffffffffffffffffffff1614159050919050565b505050565b505050565b60006114618473ffffffffffffffffffffffffffffffffffffffff16611727565b156115ba578373ffffffffffffffffffffffffffffffffffffffff1663150b7a0261148a610b5d565b8786866040518563ffffffff1660e01b81526004016114ac949392919061286b565b6020604051808303816000875af19250505080156114e857506040513d601f19601f820116820180604052508101906114e591906128cc565b60015b61156a573d8060008114611518576040519150601f19603f3d011682016040523d82523d6000602084013e61151d565b606091505b506000815103611562576040517f08c379a00000000000000000000000000000000000000000000000000000000081526004016115599061240e565b60405180910390fd5b805181602001fd5b63150b7a0260e01b7bffffffffffffffffffffffffffffffffffffffffffffffffffffffff1916817bffffffffffffffffffffffffffffffffffffffffffffffffffffffff1916149150506115bf565b600190505b949350505050565b60606000820361160e576040518060400160405280600181526020017f30000000000000000000000000000000000000000000000000000000000000008152509050611722565b600082905060005b60008214611640578080611629906128f9565b915050600a826116399190612970565b9150611616565b60008167ffffffffffffffff81111561165c5761165b611b16565b5b6040519080825280601f01601f19166020018201604052801561168e5781602001600182028036833780820191505090505b5090505b6000851461171b576001826116a791906122c8565b9150600a856116b691906129a1565b60306116c291906122fc565b60f81b8183815181106116d8576116d76129d2565b5b60200101907effffffffffffffffffffffffffffffffffffffffffffffffffffffffffffff1916908160001a905350600a856117149190612970565b9450611692565b8093505050505b919050565b6000808273ffffffffffffffffffffffffffffffffffffffff163b119050919050565b6000604051905090565b600080fd5b600080fd5b60007fffffffff0000000000000000000000000000000000000000000000000000000082169050919050565b6117938161175e565b811461179e57600080fd5b50565b6000813590506117b08161178a565b92915050565b6000602082840312156117cc576117cb611754565b5b60006117da848285016117a1565b91505092915050565b60008115159050919050565b6117f8816117e3565b82525050565b600060208201905061181360008301846117ef565b92915050565b600081519050919050565b600082825260208201905092915050565b60005b83811015611853578082015181840152602081019050611838565b60008484015250505050565b6000601f19601f8301169050919050565b600061187b82611819565b6118858185611824565b9350611895818560208601611835565b61189e8161185f565b840191505092915050565b600060208201905081810360008301526118c38184611870565b905092915050565b6000819050919050565b6118de816118cb565b81146118e957600080fd5b50565b6000813590506118fb816118d5565b92915050565b60006020828403121561191757611916611754565b5b6000611925848285016118ec565b91505092915050565b600073ffffffffffffffffffffffffffffffffffffffff82169050919050565b60006119598261192e565b9050919050565b6119698161194e565b82525050565b60006020820190506119846000830184611960565b92915050565b6119938161194e565b811461199e57600080fd5b50565b6000813590506119b08161198a565b92915050565b600080604083850312156119cd576119cc611754565b5b60006119db858286016119a1565b92505060206119ec858286016118ec565b9150509250929050565b600080600060608486031215611a0f57611a0e611754565b5b6000611a1d868287016119a1565b9350506020611a2e868287016119a1565b9250506040611a3f868287016118ec565b9150509250925092565b600060208284031215611a5f57611a5e611754565b5b6000611a6d848285016119a1565b91505092915050565b611a7f816118cb565b82525050565b6000602082019050611a9a6000830184611a76565b92915050565b611aa9816117e3565b8114611ab457600080fd5b50565b600081359050611ac681611aa0565b92915050565b60008060408385031215611ae357611ae2611754565b5b6000611af1858286016119a1565b9250506020611b0285828601611ab7565b9150509250929050565b600080fd5b600080fd5b7f4e487b7100000000000000000000000000000000000000000000000000000000600052604160045260246000fd5b611b4e8261185f565b810181811067ffffffffffffffff82111715611b6d57611b6c611b16565b5b80604052505050565b6000611b8061174a565b9050611b8c8282611b45565b919050565b600067ffffffffffffffff821115611bac57611bab611b16565b5b611bb58261185f565b9050602081019050919050565b82818337600083830152505050565b6000611be4611bdf84611b91565b611b76565b905082815260208101848484011115611c0057611bff611b11565b5b611c0b848285611bc2565b509392505050565b600082601f830112611c2857611c27611b0c565b5b8135611c38848260208601611bd1565b91505092915050565b60008060008060808587031215611c5b57611c5a611754565b5b6000611c69878288016119a1565b9450506020611c7a878288016119a1565b9350506040611c8b878288016118ec565b925050606085013567ffffffffffffffff811115611cac57611cab611759565b5b611cb887828801611c13565b91505092959194509250565b600067ffffffffffffffff821115611cdf57611cde611b16565b5b611ce88261185f565b9050602081019050919050565b6000611d08611d0384611cc4565b611b76565b905082815260208101848484011115611d2457611d23611b11565b5b611d2f848285611bc2565b509392505050565b600082601f830112611d4c57611d4b611b0c565b5b8135611d5c848260208601611cf5565b91505092915050565b60008060408385031215611d7c57611d7b611754565b5b6000611d8a858286016119a1565b925050602083013567ffffffffffffffff811115611dab57611daa611759565b5b611db785828601611d37565b9150509250929050565b60008060408385031215611dd857611dd7611754565b5b6000611de6858286016119a1565b9250506020611df7858286016119a1565b9150509250929050565b7f4e487b7100000000000000000000000000000000000000000000000000000000600052602260045260246000fd5b60006002820490506001821680611e4857607f821691505b602082108103611e5b57611e5a611e01565b5b50919050565b7f4552433732313a20617070726f76616c20746f2063757272656e74206f776e6560008201527f7200000000000000000000000000000000000000000000000000000000000000602082015250565b6000611ebd602183611824565b9150611ec882611e61565b604082019050919050565b60006020820190508181036000830152611eec81611eb0565b9050919050565b7f4552433732313a20617070726f76652063616c6c6572206973206e6f7420746f60008201527f6b656e206f776e6572206e6f7220617070726f76656420666f7220616c6c0000602082015250565b6000611f4f603e83611824565b9150611f5a82611ef3565b604082019050919050565b60006020820190508181036000830152611f7e81611f42565b9050919050565b7f4552433732313a2063616c6c6572206973206e6f7420746f6b656e206f776e6560008201527f72206e6f7220617070726f766564000000000000000000000000000000000000602082015250565b6000611fe1602e83611824565b9150611fec82611f85565b604082019050919050565b6000602082019050818103600083015261201081611fd4565b9050919050565b7f4552433732313a20696e76616c696420746f6b656e2049440000000000000000600082015250565b600061204d601883611824565b915061205882612017565b602082019050919050565b6000602082019050818103600083015261207c81612040565b9050919050565b7f4552433732313a2061646472657373207a65726f206973206e6f74206120766160008201527f6c6964206f776e65720000000000000000000000000000000000000000000000602082015250565b60006120df602983611824565b91506120ea82612083565b604082019050919050565b6000602082019050818103600083015261210e816120d2565b9050919050565b600081905092915050565b600061212b82611819565b6121358185612115565b9350612145818560208601611835565b80840191505092915050565b600061215d8285612120565b91506121698284612120565b91508190509392505050565b7f4552433732313a207472616e736665722066726f6d20696e636f72726563742060008201527f6f776e6572000000000000000000000000000000000000000000000000000000602082015250565b60006121d1602583611824565b91506121dc82612175565b604082019050919050565b60006020820190508181036000830152612200816121c4565b9050919050565b7f4552433732313a207472616e7366657220746f20746865207a65726f2061646460008201527f7265737300000000000000000000000000000000000000000000000000000000602082015250565b6000612263602483611824565b915061226e82612207565b604082019050919050565b6000602082019050818103600083015261229281612256565b9050919050565b7f4e487b7100000000000000000000000000000000000000000000000000000000600052601160045260246000fd5b60006122d3826118cb565b91506122de836118cb565b92508282039050818111156122f6576122f5612299565b5b92915050565b6000612307826118cb565b9150612312836118cb565b925082820190508082111561232a57612329612299565b5b92915050565b7f4552433732313a20617070726f766520746f2063616c6c657200000000000000600082015250565b6000612366601983611824565b915061237182612330565b602082019050919050565b6000602082019050818103600083015261239581612359565b9050919050565b7f4552433732313a207472616e7366657220746f206e6f6e20455243373231526560008201527f63656976657220696d706c656d656e7465720000000000000000000000000000602082015250565b60006123f8603283611824565b91506124038261239c565b604082019050919050565b60006020820190508181036000830152612427816123eb565b9050919050565b7f4552433732313a206d696e7420746f20746865207a65726f2061646472657373600082015250565b6000612464602083611824565b915061246f8261242e565b602082019050919050565b6000602082019050818103600083015261249381612457565b9050919050565b7f4552433732313a20746f6b656e20616c7265616479206d696e74656400000000600082015250565b60006124d0601c83611824565b91506124db8261249a565b602082019050919050565b600060208201905081810360008301526124ff816124c3565b9050919050565b7f45524337323155524953746f726167653a2055524920736574206f66206e6f6e60008201527f6578697374656e7420746f6b656e000000000000000000000000000000000000602082015250565b6000612562602e83611824565b915061256d82612506565b604082019050919050565b6000602082019050818103600083015261259181612555565b9050919050565b60008190508160005260206000209050919050565b60006020601f8301049050919050565b600082821b905092915050565b6000600883026125fa7fffffffffffffffffffffffffffffffffffffffffffffffffffffffffffffffff826125bd565b61260486836125bd565b95508019841693508086168417925050509392505050565b6000819050919050565b600061264161263c612637846118cb565b61261c565b6118cb565b9050919050565b6000819050919050565b61265b83612626565b61266f61266782612648565b8484546125ca565b825550505050565b600090565b612684612677565b61268f818484612652565b505050565b5b818110156126b3576126a860008261267c565b600181019050612695565b5050565b601f8211156126f8576126c981612598565b6126d2846125ad565b810160208510156126e1578190505b6126f56126ed856125ad565b830182612694565b50505b505050565b600082821c905092915050565b600061271b600019846008026126fd565b1980831691505092915050565b6000612734838361270a565b9150826002028217905092915050565b61274d82611819565b67ffffffffffffffff81111561276657612765611b16565b5b6127708254611e30565b61277b8282856126b7565b600060209050601f8311600181146127ae576000841561279c578287015190505b6127a68582612728565b86555061280e565b601f1984166127bc86612598565b60005b828110156127e4578489015182556001820191506020850194506020810190506127bf565b8683101561280157848901516127fd601f89168261270a565b8355505b6001600288020188555050505b505050505050565b600081519050919050565b600082825260208201905092915050565b600061283d82612816565b6128478185612821565b9350612857818560208601611835565b6128608161185f565b840191505092915050565b60006080820190506128806000830187611960565b61288d6020830186611960565b61289a6040830185611a76565b81810360608301526128ac8184612832565b905095945050505050565b6000815190506128c68161178a565b92915050565b6000602082840312156128e2576128e1611754565b5b60006128f0848285016128b7565b91505092915050565b6000612904826118cb565b91507fffffffffffffffffffffffffffffffffffffffffffffffffffffffffffffffff820361293657612935612299565b5b600182019050919050565b7f4e487b7100000000000000000000000000000000000000000000000000000000600052601260045260246000fd5b600061297b826118cb565b9150612986836118cb565b92508261299657612995612941565b5b828204905092915050565b60006129ac826118cb565b91506129b7836118cb565b9250826129c7576129c6612941565b5b828206905092915050565b7f4e487b7100000000000000000000000000000000000000000000000000000000600052603260045260246000fdfea26469706673582212202fe03894f7ad825d607cf659f32e2401922ddc04a9b39279df87ed72feb821b264736f6c63430008110033",
  "linkReferences": {},
  "deployedLinkReferences": {}
}